:020000040800F2
:100000000000052015980008289800082898000886
:100010002898000828980008289800080000000088
:100020000000000000000000000000002898000808
:100030002898000800000000289800082898000868
:100040000F4A104B104910B4D2F88800002440F435
:100050007000C2F88800186840F0010018609C60C9
:10006000186801400948196058604FF0006019682D
:1000700021F480211960DC6090605DF8044B7047CA
:1000800000ED00E000380240FFFFF6FE10300024D3
:10009000164A936803F00C03042B25D0082B0AD0D2
:1000A000134B124A134892681349C2F30312825C3D
:1000B000D3400B607047536851685B02536801F08E
:1000C0003F0148BF0D48C3F3881358BF0848B0FB31
:1000D000F1F202FB03F3054A5268C2F30142013216
:1000E0005200B3FBF2F3DCE7044BDAE700380240DE
:1000F0000024F400E89A00080000002040787D0108
:10010000704700BF704700BF10B5094B4FF0FF327A
:1001100000241A621C625A625C621A611C615A6194
:100120005C619A619C61FFF7EDFF204610BD00BF46
:100130000038024038B50D4D4FF47A730C4A04462E
:1001400029781268B3FBF1F3B2FBF3F000F06EF91B
:1001500008B90F2C01D9012038BD002221464FF0EB
:10016000FF3000F0F5F800206C6038BD040000207E
:100170000000002008B5094B03201A6842F4007201
:100180001A601A6842F480721A6000F0CFF80F20EB
:10019000FFF7D0FFFFF7B4FF002008BD003C02408E
:1001A000034A044B11681B780B441360704700BF6F
:1001B0002800002004000020014B1868704700BF91
:1001C00028000020014B5868704700BF0400002041
:1001D00038B5074C2578854201D1002038BD03464B
:1001E00060682370FFF7A6FF0028F7D0257038BDA0
:1001F00004000020014B1878704700BF0400002065
:1002000038B50446FFF7D8FF0546631C02D0044BFF
:100210001B781C44FFF7D0FF401BA042FAD338BD27
:10022000040000204FF0E022136923F00203136161
:10023000704700BF4FF0E022136943F002031361DF
:10024000704700BF0048704700020301014B186867
:10025000000C7047002004E0024B1868C0F30B004C
:10026000704700BF002004E0014BD3F82004704722
:1002700000F0F01F014BD3F82404704700F0F01F8A
:10028000014BD3F82804704700F0F01F024A53686E
:1002900043F0010353607047002004E0024A5368B2
:1002A00023F0010353607047002004E0024A5368C2
:1002B00043F0020353607047002004E0024A536891
:1002C00023F0020353607047002004E0024A5368A1
:1002D00043F0040353607047002004E0024A53686F
:1002E00023F0040353607047002004E0024A136ABD
:1002F00043F001031362704700380140024A136A59
:1003000023F001031362704700380140024A13686A
:1003100043F480631360704700380140024A136859
:1003200023F44063136070470038014006494FF6DC
:10033000FF0C0002054BCA6800F4E06002EA0C0200
:1003400010430343CB60704700ED00E00000FA0566
:100350001A4B00B5DB68C3F30223C3F1070E03F1A8
:10036000040CBEF1040F28BF4FF0040EBCF1060FC1
:100370001AD9A3F1030C4FF0FF3303FA0CF322EA6E
:1003800003024FF0FF33002803FA0EF321EA0303C0
:1003900003FA0CF343EA02034FEA0313DBB206DB72
:1003A000074A13545DF804FB00229446E9E700F085
:1003B0000F00044A13545DF804FB00BF00ED00E099
:1003C00000E400E014ED00E0002807DB00F01F016E
:1003D00001234009024A8B4042F82030704700BF99
:1003E00000E100E000280CDB4309012200F01F00BF
:1003F00004492033824041F82320BFF34F8FBFF3DD
:100400006F8F704700E100E0BFF34F8F0549064B47
:10041000CA6802F4E0621343CB60BFF34F8F00BFA2
:10042000FDE700BF00ED00E00400FA05431EB3F154
:10043000807F01D3012070474FF0E0220020054962
:100440004FF0F00C5361072381F823C090611361D2
:10045000704700BF00ED00E0BFF35F8F044B002149
:100460005A6A22F480325A62C3F89410704700BF6F
:1004700000ED00E0064B40F00100C3F894005A6A1A
:1004800042F480325A62BFF34F8FBFF36F8F7047D1
:1004900000ED00E0044BC3F89800D3F8A02042F030
:1004A0000102C3F8A020704700ED00E0044BC3F840
:1004B0009800D3F8A02022F00102C3F8A0207047D2
:1004C00000ED00E0164A4378C2F89830D2F8A03028
:1004D00023F00103C2F8A0304368C2F89C30C37A0D
:1004E00090F80CC01B06017843EA0C7390F80AC020
:1004F0000B43417B43EACC4390F80EC043EA81436F
:10050000C17B43EA4C4390F809C043EA0143017AB6
:1005100043EA0C2343EA4103C2F8A030704700BF0E
:1005200000ED00E0024BD868C0F30220704700BF26
:1005300000ED00E0002810B422DB144C205C000920
:1005400001F00701C1F1070C0C1DBCF1040F28BF1D
:100550004FF0040C062C11D903394FF0FF348C40B6
:1005600020EA0404C8404FF0FF3101FA0CF120EA00
:10057000010010601C605DF8044B70470024F2E736
:1005800000F00F00024C205C0009D9E700E400E015
:1005900014ED00E0002808DB4309012200F01F00F1
:1005A00002494033824041F82320704700E100E0D7
:1005B00000280BDB4309064A00F01F00403352F8C5
:1005C000233023FA00F000F001007047002070474C
:1005D00000E100E0002808DB4309012200F01F00D1
:1005E00002496033824041F82320704700E100E077
:1005F00000280BDB4309064A00F01F00803352F845
:10060000233023FA00F000F001007047002070470B
:1006100000E100E04FF0E022042813690CBF43F032
:10062000040323F004031361704700BF704700BF49
:1006300008B5FFF7FBFF08BD38B50446FFF7BCFD62
:10064000002C53D0226800230221054684F8343060
:1006500084F83510136823F00103136004E0FFF7FA
:10066000ABFD431B052B64D823681A68D107F6D469
:10067000D4E90120E16802431D68606A0A432169E8
:10068000042842EA0102616942EA0102A16942EAE0
:100690000102E16942EA0102216A42EA01023349A8
:1006A00001EA050142EA010203D1D4E90B1001433A
:1006B0000A431A602168626A4B69042A23F007031F
:1006C00043EA020317D1D4E90A20134398B1A5697C
:1006D000002D35D1012A0BD032F002020BD1C2011C
:1006E00009D540220023626584F83530012038BDE9
:1006F000B0F1C07FF5D04B6123681D4AD9B21D48C7
:100700006FF309031039A2FB01525F294FF0010575
:100710004FF000014FEA121288BF0433805C3F2281
:10072000A3658240E06508469A60616584F83550AB
:1007300038BD032320221846626584F8353038BD61
:10074000B5F5005F04D0022ACBD9032AC7D0D2E77F
:10075000032AD0D801A555F822F000BFE30600080F
:10076000DF060008E3060008F10600083F8010F0ED
:10077000ABAAAAAA009B000800283FD090F8352019
:100780000346022AD0B238D0002230B4186821259E
:100790001B4C016821F00101016019680A601968A9
:1007A0004A6019688A601968CA6019680A61A2F10A
:1007B000553219684D611968C8B26FF309011038D4
:1007C000A2FB00525F284FF03F004FEA121288BF91
:1007D0000431A45C00229965A040DC658860104665
:1007E0005A6583F8352083F83420C3E90F22C3E922
:1007F0001122C3E9132230BC7047704701207047B3
:10080000009B000890F834C0BCF1010F0BD04FF0F2
:10081000010C80F834C090F835C0BCF1010F04D051
:10082000002380F834300220704730B40224056879
:1008300080F83540002444652C6824F480242C6022
:10084000046863608368402B03680AD0996003687A
:10085000DA6002680020136843F00103136030BCC3
:1008600070479A600368D960F3E700BF70B490F8EE
:1008700034C0846DBCF1010F0BD04FF0010C80F837
:1008800034C090F835C0BCF1010F05D0002380F8CA
:100890003430022070BC70470225066880F835505D
:1008A00000254565356825F48025356005686B6051
:1008B0008368402B03681FD099600368DA60C26DBB
:1008C0003F239340A3600268136843F0160313604C
:1008D0000268536943F080035361036C23B10268DB
:1008E000136843F00803136002680020136843F0A4
:1008F0000103136070BC70479A600368D960DEE73B
:1009000070B50446856DFFF757FC94F83530022B1F
:1009100006D0802301206365002384F8343070BD45
:1009200022680646136823F0160313602268536991
:1009300023F080035361236C5BB32268136823F0B8
:10094000080313602268136823F00103136004E0B6
:10095000FFF732FC831B052B11D823681B6813F0AB
:100960000103F5D1E16D3F221846002302FA01F19F
:100970000122A96084F8352084F8343070BD032347
:1009800020221846626584F83530002384F834301C
:1009900070BDA36C002BD0D1D4E700BF90F83520F8
:1009A0000346022A03D0802201205A65704702685C
:1009B0000521002083F83510136823F0010313602C
:1009C000704700BF2DE9F84304460F469146FFF7F4
:1009D000F3FB94F83530022B07D0802200236265A8
:1009E00084F834300120BDE8F88323681B68DD05F6
:1009F0004BD40546E36D002F4BD010269E40D4F813
:100A00005880D8F80020164246D1626DD20743D4F0
:100A1000B9F1FF3F08D0B9F1000F4FD0FFF7CCFB81
:100A2000431B4B454AD8E36D4FF0080E4FF0010CC5
:100A30000420D8F800100EFA03F20A4206D0636DC3
:100A400043F001036365C8F80820E36D0CFA03F274
:100A50000A4206D0636D43F002036365C8F80820BC
:100A6000E36D00FA03F30B4205D0626D42F004021D
:100A70006265C8F808300E420ED1636DD9070BD4F9
:100A8000B9F1FF3FCAD1E36DD3E74FF480736365DB
:100A9000A8E720269E40B2E7636D13B1636DDB07C4
:100AA0001CD4E26DAFB9302393400122C8F808305E
:100AB00084F8352084F83470002094E72021012246
:100AC00000230320616584F8343084F83520BDE8C4
:100AD000F88310239340C8F80830EDE72046FFF76D
:100AE0000FFFE16D302301228B40C8F8083000234E
:100AF00084F8352084F8343074E700BFF0B5002264
:100B00006D4B83B004461E6801920822D0E916732B
:100B10003D6802FA03F1294204D0016808684007E1
:100B200000F19E8001229A402A4204D0216849693E
:100B3000090600F18E8004229A402A4203D02168DF
:100B4000096888077ED410229A402A4203D021687F
:100B50000968090764D4202202FA03F32B4215D056
:100B600022681268D50611D5BB6094F83530052B84
:100B700035D023681A68500340F186801B6819033A
:100B800040F19180E36B0BB120469847636D002BD9
:100B900044D0636DDA071BD522680521474B84F8E2
:100BA0003510A3FB0636136823F00103B60A136061
:100BB00003E023681B68DB0704D5019B0133B342C4
:100BC0000193F6D90122002384F8352084F83430CB
:100BD000E36C1BB3204603B0BDE8F0401847226821
:100BE000136823F0160313602268536923F080030F
:100BF0005361236C002B5BD02268136823F0080339
:100C00001360E26D3F23012193400022BB60236DFE
:100C100084F8351084F83420002BDBD103B0F0BD0C
:100C2000BA6023681A68500327D41A68D20503D41F
:100C30001A6822F008021A60236C0BB1204698470C
:100C4000E36D88E7BA60636D43F004036365E36DA9
:100C500079E7BA60636D43F002036365E36D6AE7A9
:100C60000B6823F004030B60E36D9A40BA60636D78
:100C700043F001036365E36D54E71B681903DBD59B
:100C8000A36C002BDAD1DBE71A6812F480727FF4D0
:100C900079AF196821F010011960012384F834201C
:100CA00084F835306EE7636C002B7FF46DAF6DE731
:100CB000A36C002BA0D1A4E700000020B5814E1B3F
:100CC000034690F83400012812D093F835C0BCF1E7
:100CD000010F5FFA8CF004D00120002283F8342049
:100CE00070470529F9D8DFE801F0080A0C0E100555
:100CF000022070471A650020EFE7DA63FBE71A6409
:100D0000F9E75A64F7E79A64F5E7DA64F3E700BFB6
:100D100090F834200346012A15D090F835204FF082
:100D2000010C6245D0B283F834C004D06046002282
:100D300083F8342070470629F9D8DFE801F00F1254
:100D400015181B1E0600022070470022C3E90F225F
:100D5000C3E91122C3E913220020E8E70022DA6385
:100D6000FAE700221A64F7E700225A64F4E7002247
:100D70009A64F1E70022DA64EEE700221A65EBE7F5
:100D800090F83500704700BF406D70472DE9F04F77
:100D9000002383B001264FF00308894C03E00133A0
:100DA000102B00F0D28006FA03F20D6802EA050E5D
:100DB000AA43F4D14A684FEA430C02F0030208FA4E
:100DC0000CF502F1FF39ED43B9F1010F16D8826835
:100DD00002EA0509CA6802FA0CF242EA09028260D4
:100DE0004A68D0F80490C2F3001229EA0E099A402A
:100DF00042EA090242604A6802F00302032A25D04F
:100E0000C26802EA05098A6802FA0CF242EA09029B
:100E1000C2604A6802F00302022A17D103F00702F7
:100E20000F694FEAD309920000EB890907FA02FB28
:100E30000F27D9F820A007FA02F22AEA020A4BEAA1
:100E40000A02C9F820204A6802F0030202FA0CF2F2
:100E5000D0F800C00CEA05052A4302604A6812F483
:100E6000403F9CD0574D03F0030C0F276A6C4FEAAC
:100E70008C0C42F4804207FA0CF9534F6A646A6C96
:100E800023F00305B84205F1804502F4804205F5E0
:100E90009C350192019AAA6822EA09022AD007F534
:100EA0008067B84254D0494FB84258D0DFF82091FB
:100EB00048455BD0DFF81C9148455ED0DFF81891BB
:100EC000484568D0DFF8149148456BD0DFF81091A1
:100ED000484559D0DFF80C9148456AD0DFF80891B1
:100EE00048450CBF4FF009094FF00A0909FA0CFCFC
:100EF00042EA0C02AA606FEA0E0C4A680133A56848
:100F0000D70254BF0CEA05054EEA0505A5604A68FC
:100F1000E568920254BF0CEA05054EEA0505E56056
:100F20004A686568970354BF0CEA05054EEA050553
:100F300065604D682268ED0354BF0CEA02024EEA78
:100F40000202102B22607FF42EAF03B0BDE8F08FB9
:100F50004FF0010909FA0CFC42EA0C02CAE74FF013
:100F6000020909FA0CFC42EA0C02C3E74FF003093C
:100F700009FA0CFC42EA0C02BCE74FF0040909FA3A
:100F80000CFC42EA0C02B5E74FF0070909FA0CFC29
:100F900042EA0C02AEE74FF0050909FA0CFC42EAFE
:100FA0000C02A7E74FF0060909FA0CFC42EA0C0212
:100FB000A0E74FF0080909FA0CFC42EA0C0299E795
:100FC000003C01400038024000000240000802409E
:100FD000000C0240001002400014024000180240C1
:100FE000001C024000200240002402402DE9F04F86
:100FF000002383B00126DFF870A14FF00F09554F91
:1010000002E00133102B7BD006FA03F232EA01042E
:1010100002EA010CF5D123F0030503F00304554463
:10102000A400D5F808E009FA04F801954A4D08EA49
:101030000E0EA84227D005F58065A84263D0474D23
:10104000A84263D0464DA84265D0464DA84267D01D
:10105000DFF818B1584568D0DFF814B1584569D0A9
:10106000DFF810B158456AD0DFF80CB158456BD0A5
:10107000DFF808B158450CBF4FF0090B4FF00A0BD1
:101080000BFA04F400E00024A64514D13C6824EADD
:101090000C043C607C6824EA0C047C60FC6824EA54
:1010A0000C04FC60BC6824EA0C04BC60019DAC68C4
:1010B00024EA0804AC605C0003254FEAD30CA54089
:1010C000046800EB8C0C24EA0504046003F00704B8
:1010D000DCF820E00133A400102B09FA04F42EEA16
:1010E0000404CCF82040C46824EA0504C4604468C1
:1010F00024EA02024260826822EA0502826083D109
:1011000003B0BDE8F08F06FA04F4BDE74FF0020B20
:101110000BFA04F4B8E74FF0030B0BFA04F4B3E74F
:101120004FF0040B0BFA04F4AEE74FF0050B0BFA8B
:1011300004F4A9E74FF0060B0BFA04F4A4E74FF010
:10114000070B0BFA04F49FE74FF0080B0BFA04F4BB
:101150009AE700BF003C0140000002400008024046
:10116000000C024000100240003801400014024010
:1011700000180240001C02400020024000240240EF
:101180000369194214BF01200020704702B9090405
:1011900081617047436901EA030221EA030141EAE0
:1011A00002418161704700BF82B04FF480330193E8
:1011B000019B0B430193019BC361C161019BC3610F
:1011C000C3690193C06980F48030C0F3004002B06D
:1011D000704700BF704700BF044A5169014200D107
:1011E000704708B55061FFF7F5FF08BD003C0140AE
:1011F0002DE9F04103680446986910F0100C54D0B2
:101200001546002710220E46B846DA6123689A690F
:1012100092067DD4B8F1000F07D1721C4DD19A69A6
:101220009506FCD52022DA61236847F0040C0120E2
:101230009A69D50531D54FF480714CF0010CD96114
:101240005105236805D54FF480614CF0080CD96135
:101250002368960505D54FF400724CF0020CDA6154
:1012600023689A69910702D500229A6223689A69D5
:10127000D2071CD55A682025274901200A400021A1
:101280005A60636C84F8401043EA0C03636484F88A
:10129000415084F84210BDE8F0815705D3D495053C
:1012A000D9D40028DDD1BDE8F0816046C0E79A6955
:1012B00042F001029A612368DCE7FEF77DFF401BE4
:1012C0002368B04204D81EB19A699006A5D5A9E753
:1012D000586894F842209969D2B209040BD54004A9
:1012E00009D4202A07D05A6842F480425A60FEF797
:1012F00063FF236805469A69910688D4FEF75CFF70
:10130000401B23681928F6D920274FF001087EE7F3
:10131000B8F1000F89D185E700E800FE70B50446FA
:101320000D461646036805E0FFF762FF00BB6A1C26
:1013300008D123689B693246294620469B07F3D58E
:10134000002070BDFEF738FF801B2368A84201D83B
:10135000002DEFD19A6912F00202EBD1636C2021CB
:1013600084F840200B43636484F8411084F84220E1
:10137000012070BD2DE9F843DDF820901E4605469A
:1013800088461746036805E0FFF732FF60BB731C11
:101390000ED12B689C694A463146284638EA040437
:1013A0000CBF01230023BB42EED00020BDE8F88330
:1013B000FEF702FFA0EB09002B68B04201D8002E17
:1013C000E8D19A6938EA02020CBF01220022BA422F
:1013D000E0D16B6C202100220B4385F840206B6428
:1013E00085F8411085F842200120DFE703689B69FA
:1013F0009B0629D470B505460C4616460DE0FEF74F
:10140000DBFE801B2968A04200D81CB98B6913F051
:1014100020030DD08B699B0608D43246214628460E
:10142000FFF7E6FE0028EAD0012070BD002070BD65
:101430006A6C2021012085F840300A436A6485F8EF
:10144000411085F84230F0E70020704770B503681E
:101450000D46044616469B6959073BD43246294639
:101460002046FFF7C5FE2368F8B99A69920624D58D
:101470009A699A6912F010022ED0102520220421B8
:10148000DD6123686164DA6121681F4D4B682B4080
:101490004B6084F8412084F8400084F84200FEF755
:1014A0008BFE23689B69012070BD9B699906F6D469
:1014B000FEF782FE23689B69F5E7FEF77DFE801B41
:1014C00085420FD22268936913F0040311D0936907
:1014D0005A07C3D5002070BD6264FEF76DFE801B05
:1014E0008542EFD3002DEDD023689B695B07B5D50E
:1014F000F0E7616C202084F840300143616484F897
:1015000041009369CFE700BF00E800FE704700BFCD
:10151000002859D010B590F84130044603F0FF027E
:10152000002B4CD0226824234FF0200C84F841304B
:10153000136823F001031360D4E9002323F07063E0
:1015400013612268936823F400439360E368226880
:10155000012BA3680CBF43F4004343F4044393609E
:10156000E2682368022A5A680CBF42F4006222F43F
:1015700000625A602268154B51680B435360226821
:10158000D36823F40043D360A0692168D4E904320E
:101590001343002243EA0023CB602168D4E90730DB
:1015A000034310460B6021680B6843F001030B6096
:1015B000626484F841C0226384F8422010BD80F840
:1015C0004020FFF7A3FFADE7012070470080000235
:1015D000704700BFB0B1242310B50268044680F8FC
:1015E0004130136823F001031360FFF7F1FF00237C
:1015F0006364184684F8413084F84030236384F8EB
:10160000423010BD012070472DE9F047994690F80F
:10161000413082B0202B0A9E40F0958090F84030F7
:101620000446012B00F08F804FF0010A0F469046D0
:1016300080F840A0FEF7C0FD5246054600901923F1
:101640004FF400412046FFF795FE002877D1212373
:10165000C7F30907226884F841301023C4F82480B6
:1016600084F842306064A4F82A90638D60639BB272
:10167000FF2B6CD8638D9BB22385002B40F09680A6
:1016800053684C490B404C493B4319435160638DAF
:101690002A46314620469BB2002B3ED0FFF73EFE45
:1016A00000284CD1616A236809789962B4F82AC08D
:1016B000238D616A0CF1FF3C013B01311FFA8CFC68
:1016C0009BB26162A4F82AC0618D238589B2002B88
:1016D000DDD10029DBD0024633468021204600952B
:1016E000FFF748FE4FF0FF0C48BB638DDFF8D4E0F6
:1016F0009BB232497046226863454AD9A4F828C093
:101700002046536803EA0E033B43194351602A46BF
:10171000638D31469BB2002BC0D1FFF767FE70B9D5
:1017200023682022264DDA6121684B682B404B60EC
:1017300084F8412084F8400084F8420000E0012051
:1017400002B0BDE8F087022002B0BDE8F087FF23B9
:101750004FF08071238598F800303943DFF854C08A
:101760009362638D626A013B206801329BB26262C0
:101770006385238D013B9BB2238501334268DBB235
:1017800002EA0C020A4342EA034343F40053436073
:101790007DE7638D9BB22385DBB2516847EA034343
:1017A00001400B4343F00073536070E74FF000714A
:1017B000D1E700BF009800FC002000020000FF01FC
:1017C00000E800FE009C00FC2DE9F047984690F8E8
:1017D000413082B0202B0A9E40F0958090F8403036
:1017E0000446012B00F08F804FF0010A0F4691460E
:1017F00080F840A0FEF7E0FC192305460090524611
:101800004FF400412046FFF7B5FD002877D1222391
:10181000C7F30907226884F841301023C4F82490E4
:1018200084F842306064A4F82A80638D60639BB2C0
:10183000FF2B6CD8638D41489BB22385DBB2516886
:1018400047EA034301400B433D4919435160638D0F
:101850002A46314620469BB2002B3ED0FFF7F6FDCC
:1018600000284CD12168636A496A1970B4F82AC00B
:10187000616A0CF1FF3C238D01311FFA8CFC013BA6
:101880006162A4F82AC09BB2618D238589B20029C8
:10189000DDD0002BDBD10246334680212046009567
:1018A000FFF768FD4FF0FF0C48BB638DDFF8A0E049
:1018B0009BB2244970462268634532D9A4F828C0F7
:1018C0002046536803EA0E033B43194351602A46FE
:1018D000638D31469BB2002BC0D1FFF787FD70B9F5
:1018E00023682022184DDA6121684B682B404B6039
:1018F00084F8412084F8400084F8420000E0012090
:1019000002B0BDE8F087022002B0BDE8F0870B49C5
:10191000A4F828A053680B400C493B43194351607D
:1019200095E7638D9BB22385DBB2516847EA034399
:1019300001400B4343F00073536088E7009800FCBC
:10194000002400020000FF0100E800FE0024010165
:10195000009C00FC2DE9F0431D4690F8413083B017
:10196000202B7CD104460E46002971D0B2FA82F8B1
:1019700017464FEA5818002A6AD05FFA83F990F8A0
:101980004030012B6BD0012380F84030FEF714FC6F
:10199000226821236662C4F83480064684F8413008
:1019A00084F84290C4F844806785536823F4004368
:1019B0005360236AB3F5003F0AD1626A2368127844
:1019C0009A62638D626A013B01329BB262626385F7
:1019D0002B460022082120460096FFF7CBFC074645
:1019E00000284DD123684FF00808C3F81C80E36835
:1019F000022B38D02B4600224FF48031204600962F
:101A0000FFF7B8FC00283BD1638D9BB29BB94BE03C
:101A1000626A236812789A62B4F82AC0636A0CF189
:101A2000FF3C01331FFA8CFC6362A4F82AC0628D6C
:101A300092B2002A38D0324629462046FFF76EFC83
:101A40000028E5D02268536843F40043536002E065
:101A50004FF400736364012003B0BDE8F0830220FB
:101A600003B0BDE8F08302462B464146204600966F
:101A7000FFF780FC002859D12368C3F81C80B9E720
:101A80002268536843F40043536023689A699507BA
:101A900002D500229A6223689A69D407DBD49A6936
:101AA00042F001029A61D6E72B460022102120461F
:101AB0000096FFF75FFCF0B1638D626C9BB2002B68
:101AC000C0D1042ABED163642B4601224FF40041E9
:101AD00020460096FFF74EFC0028B3D12268202153
:101AE000536843F40043536084F8411084F8400085
:101AF00084F84200B0E723689A69910701D598629B
:101B000023689A69D20704D49A6942F001029A6163
:101B10002368102229462046DA613246FFF766FC28
:101B200000288FD123682022DA61CDE7226853682C
:101B300043F40043536023689A699007ACD59F62D1
:101B40002368A9E72DE9F0471D4690F8413082B09F
:101B5000202B3DD104460F46002935D0B2FA82F839
:101B600016464FEA58187AB35FFA83F990F8403076
:101B7000012B2DD04FF0010A80F840A0FEF71CFB8E
:101B800022236762074684F84130424684F8429037
:101B90000821C4F8448066852668638DC4F83480C3
:101BA00023852B46706820F4004070602046009723
:101BB000FFF7E0FB80B12268536843F400435360B1
:101BC000012002B0BDE8F0874FF400736364F7E7CB
:101BD000022002B0BDE8F087236808215246204663
:101BE000D9612B464FF480310097FFF7C3FBB0B1AA
:101BF000E1E7FFF72BFC2268002834D1526A636AC0
:101C00001A70B4F82AC0626A238D0CF1FF3C0132CD
:101C1000013B1FFA8CFC62622385A4F82AC0638D05
:101C20003A46294620469BB2002BE2D1FFF7DEFB65
:101C30000028C0D1226820262B464FF40041D661EF
:101C4000204601220097FFF795FB0028B3D12268B8
:101C5000536843F40043536084F8416084F84000C3
:101C600084F84200ADE7536843F4004353602368AF
:101C70009A695207A4D55A6A636A1A70638D616AB9
:101C8000228D013B0131013A9BB26162228563855D
:101C900096E700BF70B490F84140202C36D105681B
:101CA000AC6914F4004431D190F840C0BCF1010F8C
:101CB0002CD02126C1F30901426280F84160102630
:101CC00080F84260446401244385234B80F84040FF
:101CD000C362224B4363438D9BB2FF2B19D8438DC4
:101CE0009BB20385002B33D16B681D4A13401D4AFC
:101CF0000B431A436A600168002380F8403018469D
:101D00000A6842F0F2020A6070BC7047022070BCA0
:101D10007047FF2303854FF0807319431378104EEB
:101D2000AB62428D038D446A013A013B013492B2A9
:101D30009BB2446204680385013342856268DBB26A
:101D400032400A4342EA034343F400536360D2E75C
:101D50004FF00073E1E700BF0000FFFFC53F000840
:101D6000009800FC0020000230B490F84140202C84
:101D70003AD10568AC6914F4004435D190F840C0FC
:101D8000BCF1010F30D04262222280F841201022A3
:101D900080F84220184A44644385C262428D174B42
:101DA00092B243630123FF2A80F840301FD8428D4E
:101DB0004FF0007493B2D2B212040385C1F3090349
:101DC0000F4913436A680A4013430022234343F434
:101DD00010536B60016880F8402010460B6843F098
:101DE000F4030B6030BC7047022030BC70474FF4E6
:101DF00080324FF08074E0E70000FFFFC53F00082D
:101E0000009800FC034690F8410020282BD15FFA8F
:101E100080FC93F84000012825D0012030B483F8DD
:101E2000400021201C6883F84100002083F842C054
:101E300058646068144D20F4004060605A851A6A46
:101E40005C8D1248B2F5003F5962DD621C85586313
:101E50000BD000201A6883F84000136843F0FA039F
:101E6000136030BC70470220704709781A6891628D
:101E70005A8D586A198D013A0130013992B258626F
:101E800019855A85E5E700BF0000FFFF614C000897
:101E900090F84130202B29D1F0B4DCB290F84030DA
:101EA000012B20D001230568114E80F840302223F9
:101EB000104F80F84130002380F8424043646C6842
:101EC00024F400446C6042854162428D016847639E
:101ED0000285C66280F8403018460A6842F0FC026B
:101EE0000A60F0BC70470220F0BC704702207047C7
:101EF0000000FFFF614C0008F8B50D4690F8411056
:101F0000202938D104460068816911F4004132D19A
:101F100094F84060012E2ED02126626284F8416040
:101F2000102684F84260012661646385484B84F87A
:101F30004060E362638D474E9BB26663FF2B1CD803
:101F4000638D9BB22385002B7AD1434BC5F30905E2
:101F5000424A6363436813401D43414B0D430021D4
:101F60002B434360226884F84010136843F0F20367
:101F700013600020F8BD0220F8BDFF234FF08076EB
:101F8000238513788362238D628D616A013B013A58
:101F900001319BB292B2616262852385002B52D0DF
:101FA000A36B002B40D02F4A0027DA632E4AA36B85
:101FB000DA64A36B1F64A36B1F652268238D28322C
:101FC000616AA06BFEF752FC60B1202384F8407078
:101FD00084F8413084F84270636C43F0100363640A
:101FE0000120F8BD2168C5F309031C4D4A6833433D
:101FF0002A401343228D0132D2B243EA024343F412
:1020000000534B60638D218D22685B1A84F8400079
:102010009BB26385136843F09003136022681368D2
:1020200043F480431360A4E7202284F8403084F80E
:10203000412084F84230636C43F080036364CFE74F
:102040004FF000769DE720684FF480317DE700BFB8
:102050000000FFFF7D430008C53F0008009800FC1A
:102060000020000251450008F5440008F8B50D466F
:1020700090F84110202933D104460068816911F499
:1020800000412DD194F84060012E29D022266262B1
:1020900084F84160102684F8426061640121638500
:1020A0003D4B84F84010E3623C4B6363638D9BB20D
:1020B000FF2B17D8638D9BB22385002B36D0E36BA3
:1020C0004FF00077A3B9202284F84030012084F833
:1020D000412084F84230636C43F080036364F8BDB0
:1020E0000220F8BDE36B4FF080772185002BEAD00A
:1020F0002B490026D9632B49E36BD964E36B1E643B
:10210000E36B1E652168238D2431E06BFEF7AEFB87
:1021100000B32023012084F8406084F8413084F823
:102120004260636C43F010036364F8BD1E4AC5F35C
:1021300009051E49626342680A4015431C4A2A4346
:102140004260226884F84030136843F0F40313605F
:102150000020F8BD2168C5F30903144D4A683B43CC
:102160002A40134394F8282043EA024343F41053CF
:102170004B60638D218D22685B1A84F840009BB20E
:102180006385136843F0900313602268136843F477
:1021900000431360DCE700BF0000FFFF7D43000841
:1021A000FD450008F5440008C53F0008009800FC04
:1021B0000024000238B590F84130202B59D1044654
:1021C000002951D0D8B2B2FA82F35B09002A4BD071
:1021D00094F84050012D4CD02125616284F8415083
:1021E00084F8420063646285236A394A608DB3F5DE
:1021F000003F384D62634FF00102E562208584F8AC
:1022000040200CD10A7823689A62638D616A228D1E
:10221000013B0131013A9BB2616222856385638D86
:102220009BB2002B46D0A36B002B37D02A49002548
:102230002A4AD963A36BDA64A36B1D64A36B1D6583
:102240002268238D616A2832A06BFEF70FFB90B1E4
:10225000282384F8405084F8413084F84250636C5D
:1022600043F01003636402E04FF4007363640120E1
:1022700038BD022038BD2268536823F40043536000
:10228000226884F84000136843F0B80313602268A2
:10229000136843F480431360002038BD282284F87B
:1022A000403084F8412084F84230636C43F080036E
:1022B0006364DCE721684A6822F400424A602268CD
:1022C00084F84030136843F0B8031360E4E700BFBC
:1022D000314B00080000FFFF993B0008F54400085F
:1022E00038B5134690F84120202A43D104460029EE
:1022F0003BD0B3FA83F56D09002B36D0D0B294F8F9
:102300004020012A36D02222616284F8412084F8DC
:10231000420065646385274B628D27482285012230
:102320006363E36BE06284F84020002B36D02348DF
:102330000A462349D863E36BD964E36B1D64E36BFE
:102340001D652168238D2431E06BFEF78FFA98B16B
:102350002823012084F8405084F8413084F842500A
:10236000636C43F01003636438BD4FF4007363641F
:10237000012038BD022038BD2268536823F4004391
:102380005360226884F84000136843F0B803136078
:102390002268136843F40043136038BD282284F890
:1023A000403084F8412084F84230636C43F080036D
:1023B0006364DDE7314B00080000FFFFB13B00081C
:1023C000F54400082DE9F04F994690F8413083B06C
:1023D000202BBDF834A00E9F23D10C9B0446E3B103
:1023E000BAF1000F19D090F84030012B19D04FF0FE
:1023F000010B0D46904680F840B0FDF7DDFE5A46D1
:102400000646009019234FF400412046FEF7B2FF24
:1024100058B1012003B0BDE8F08F4FF4007363643E
:10242000F7E7022003B0BDE8F08F0C9BC5F3090568
:10243000216863622123606384F8413040235D4A50
:1024400084F8423060642046A4F82AA04B68134008
:102450005FFA89F243EA0243574A2B431A434A6020
:1024600032463946FEF75AFF002875D1B9F1010FFF
:10247000236868D15FFA88F29A623B460022802185
:1024800020460096FEF776FF002865D1638D22680E
:102490009BB2FF2B64D9FF234849238553680B4027
:1024A00047492B431943516003E0638D9BB2002BD6
:1024B00069D0324639462046FEF730FF0028A8D1C1
:1024C000616A236809789962B4F82AC0616A0CF1DC
:1024D000FF3C238D01311FFA8CFC013B6162A4F8A3
:1024E0002AC09BB2618D238589B20029DDD0002BE3
:1024F000DBD102463B46802120460096FEF73AFF9C
:102500004FF0FF0C002884D1638DDFF8B0E09BB260
:102510002B4970462268634508D9A4F828C053683F
:1025200003EA0E032B4319435160BEE7638D9BB250
:102530002385DBB2516845EA034301400B4343F076
:1025400000735360B1E74FEA1822394620469A6279
:102550003246FEF7E3FE88B1002384F8403058E7A6
:10256000638D16489BB22385DBB2516845EA03436D
:1025700001400B4343F0007353609AE75FFA88F31E
:102580002268936279E7324639462046FEF72EFFED
:1025900000287FF43EAF236820220A4DDA612168CB
:1025A0004B682B404B6084F8412084F8400084F84D
:1025B00042002FE7009800FC00200001009C00FC76
:1025C0000000FF0100E800FE2DE9F04F994690F869
:1025D000413083B0202BBDF834A00E9F23D10C9B3B
:1025E0000446E3B1BAF1000F19D090F84030012B46
:1025F00019D04FF0010B0D46904680F840B0FDF722
:10260000DBFD5A460646009019234FF40041204650
:10261000FEF7B0FE58B1012003B0BDE8F08F4FF4D3
:1026200000736364F7E7022003B0BDE8F08F0C9BF2
:10263000C5F30905226863622223606384F8413090
:1026400040235E4984F8423060642046A4F82AA002
:1026500053680B405FFA89F143EA014339462B4343
:1026600043F4005353603246FEF758FE002877D1FA
:10267000B9F1010F23686AD15FFA88F29A623B468A
:102680000022402120460096FEF774FE002867D104
:10269000638D22689BB2FF2B66D9012347492385AE
:1026A00053680B4046492B431943516003E0638D47
:1026B0009BB2002B6BD03B460022042120460096A3
:1026C000FEF758FE0028A6D12168636A496A19708E
:1026D000B4F82AC0616A0CF1FF3C238D01311FFA66
:1026E0008CFC013B6162A4F82AC09BB2618D2385FA
:1026F00089B20029DBD0002BD9D102463B4680218C
:1027000020460096FEF736FE4FF0010C002882D1DD
:10271000638DDFF8BCE09BB22A4970462268FF2B2C
:1027200008D9A4F828C0536803EA0E032B431943C1
:102730005160BCE7638D9BB22385DBB2516845EAEB
:10274000034301400B4343F000735360AFE74FEA8C
:102750001822394620469A623246FEF7DFFD88B1DC
:10276000002384F8403056E7638D14489BB22385DC
:10277000DBB2516845EA034301400B431249194358
:10278000516098E75FFA88F32268936277E73246F0
:1027900039462046FEF72AFE00287FF43CAF236826
:1027A00020220A4DDA6121684B682B404B6084F887
:1027B000412084F8400084F842002DE7009800FC96
:1027C00000240101000001010024000200E800FED5
:1027D000009C00FC70B5844690F84100BDF81440A0
:1027E00020284BD1049800284AD0002C48D0DCF88F
:1027F0000050A86910F4004040D19CF840E0BEF1C0
:10280000010F3BD04FF0010EACF82800049E012BC5
:102810008CF840E04FF0210ECCF824608CF841E0B9
:102820004FF0400E8CF842E0CCF844001A48ACF867
:102830002A40CCF82C001948CCF84C10CCF83400C5
:10284000D0B223D0120AAA62CCF85000DCF80040C3
:10285000C1F30902DBB20020616842EA0343104A77
:102860001140104A0B431A436260DCF800208CF8D8
:102870004000136843F0F203136070BD022070BD86
:102880004FF400730120CCF8443070BD4FF0FF329C
:10289000A862CCF85020D9E70000FFFFB546000839
:1028A000009800FC0020000170B5844690F84100BB
:1028B000BDF81440202849D10498002848D0002CA5
:1028C00046D0DCF80050A86910F400403ED19CF8D6
:1028D00040E0BEF1010F39D04FF0010E049E012BF4
:1028E0008CF840E04FF0220ECCF824608CF841E0E8
:1028F0004FF0400E8CF842E0CCF844001A48ACF897
:102900002A40CCF82C001948CCF84C10CCF83400F4
:10291000D0B223D0120AAA62CCF85000DCF80040F2
:10292000C1F30902DBB20020616842EA0343104AA6
:102930000A40134343F400536360DCF800208CF832
:102940004000136843F0F203136070BD022070BDB5
:102950004FF400730120CCF8443070BD4FF0FF32CB
:10296000A862CCF85020D9E70000FFFFB546000868
:10297000009800FCF8B5044690F841000D461E464C
:1029800020280699BDF81C3051D100294AD0002BCF
:1029900048D02768B86910F4004048D194F840C086
:1029A000BCF1010F43D04FF0210C616284F841C0AB
:1029B0004FF0400C84F842C0606401206385314BC5
:1029C00084F84000E362E564638D2F489BB2606346
:1029D000FF2B2ED8638D9BB2012E2385D3B22AD034
:1029E000120ABA622365A36B53B3284A0027DA633D
:1029F000274AA36BDA64A36B1F64A36B1F6522686D
:102A0000238D2832A06BFDF731FF28B3202384F8F3
:102A1000407084F8413084F84270636C43F01003D6
:102A2000636402E04FF4007363640120F8BD022088
:102A3000F8BDFF23D0E7BB624FF0FF332365D2E739
:102A4000202284F8403084F8412084F84230636CBE
:102A500043F080036364E8E72268F3B2C5F3090535
:102A60000C4945EA034553680B401D430A4B2B4371
:102A70005360226884F84000136843F0F203136047
:102A8000F8BD00BF0000FFFF4D41000851450008A0
:102A9000F5440008009800FC00200001F8B50D4640
:102AA00090F8411004461E462029069BBDF81C00E4
:102AB00052D1002B4BD0002849D02768B96911F4B6
:102AC000004149D194F840C0BCF1010F44D04FF00F
:102AD000220C636284F841C04FF0400C84F842C07D
:102AE0006164324960850120E162E564618D84F8AA
:102AF000400089B22E48FF2960632FD8618D89B2CA
:102B0000012E2185D1B22BD0120ABA622165E16B68
:102B100059B31A46274B0027CB632749E36BD96487
:102B2000E36B1F64E36B1F652168238D2431E06B29
:102B3000FDF79CFE28B3202384F8407084F84130D0
:102B400084F84270636C43F01003636402E04FF456
:102B5000007363640120F8BD0220F8BDFF21CFE7B8
:102B60004FF0FF32B9622265D1E7202384F840108C
:102B700084F8413084F84210636C43F0800363644E
:102B8000E8E72168C5F30903F6B20C4D4A6843EA49
:102B900006432A40134343F400534B60226884F8F1
:102BA0004000136843F0F2031360F8BD0000FFFF1C
:102BB0004D410008FD450008F5440008009800FC60
:102BC0002DE9F047002584B00446039590F84100B4
:102BD00020285AD1174622689946936913F4004376
:102BE00053D194F8400001284FD0C1F309060121C8
:102BF000DFF8F88084F84010242146EA080884F8B9
:102C000041106364E368012B3CD043465360FDF7F9
:102C1000D3FA054620688369826903F0200302F035
:102C20001002134313D1B9F1FF3F08D0FDF7C4FAE6
:102C3000401B48452DD8B9F1000F2AD02068816982
:102C4000836901F0200103F010031943EBD083697D
:102C500013F0100A2BD14B465246202120460095F6
:102C6000FEF788FB002837D0636C042B2ED0039B23
:102C700001330393039B039BBB420AD2E3682268A0
:102C8000012BC2D1184B3343C0E7022004B0BDE88A
:102C9000F0872023012084F84130636C43F0200347
:102CA0006364002384F8403004B0BDE8F08710234B
:102CB00000222021C3614B4620460095FEF75AFBB7
:102CC0000028D4D123682022DA61D0E723682022AB
:102CD000DA61C4F844A0CAE720232268D36184F8EB
:102CE000413084F84000D1E70020000200280002B3
:102CF000F0B4844690F84100049C20287ED19CF8D2
:102D0000400001287AD0212024F00076CCF824203D
:102D10008CF8410010208CF842000020CCF84400D0
:102D2000ACF82A30CCF82C40BCF82A004B4B80B2CF
:102D3000CCF834300123FF288CF840303CD8BCF864
:102D40002A30DCF82C509BB2ACF82830002B38D15C
:102D5000DCF80000DCF83030112B6ED00022DCF8FB
:102D60002C30AA2B65D0DCF82C30B3F52A4F5BD081
:102D7000BCF82A309BB2FF2B43D8DCF82C50384CDF
:102D8000384F002E41D09CF82820C1F3090343EAB4
:102D9000024342682B4314403B4323F00043234348
:102DA00043600020DCF800208CF84000136843F0FA
:102DB000F2031360F0BC7047FF234FF08075ACF84E
:102DC0002830DCF80000002EC4D113788362DCF8D0
:102DD0002430BCF828200133CCF82430BCF82A3049
:102DE000013B9BB2ACF82A30531EACF82830DCF81B
:102DF0003030112B2DD0DCF80000B0E70220F0BC01
:102E00007047174C174F002EBDD13D43C1F3090346
:102E100012042B4302F47F021343426823F0004361
:102E2000224013434360BCE74FF00073CCF82C30D2
:102E30009EE70023CCF82C309AE7AA2C8ED0A4F57C
:102E40002A42B2FA82F25209002A87D1064C17466A
:102E500097E7054CDCF80000D8E700BFC53F000845
:102E6000009800FC00200080009C00FC2DE9F04749
:102E70000D4690F84110089E202940F0AF8090F850
:102E800040100446012900F0A9802121426280F807
:102E90004110102180F84210002141640121438536
:102EA0007C4BC6624363438D80F840109BB2FF2B7E
:102EB0006BD8438DD0F82C809BB20385002B68D152
:102EC000226B112A00F0B5800027E26AAA2A00F0DE
:102ED000CB80E26AB2F52A4F02D14FF00072E26273
:102EE000628D92B2FF2A7CD8D4F82C80DFF8BC9196
:102EF000002B7AD0A36B002B00F0B980664A4FF00C
:102F0000000ADA63654AA36BDA64A36BC3F840A0D6
:102F1000A36BC3F850A02268238D2832616AA06B8E
:102F2000FDF7A4FC002840F091805D4A36F0007364
:102F3000C5F30905216842EA59526FEA020240F0DE
:102F4000A28048EA09093B0449EA050903F47F0322
:102F5000486843EA0903024023F0004313434B60EF
:102F60000021638D208D22681B1A84F840109BB2CB
:102F70006385136843F0900313602268136843F479
:102F8000804313600020BDE8F087FF234FF0807876
:102F9000038536F0007947D1127823689A62638DF1
:102FA000278D013B9BB26385636A226B0133112A33
:102FB000636207F1FF339BB2238586D1002B99D141
:102FC000384B0127384922686363C5F309033F047E
:102FD00043EA080307F47F073B4316E00220BDE8FD
:102FE000F087DFF8C890002B84D12D4B48EA090800
:102FF000226843EA5953D9432A4B636336F000737E
:10300000E3D0C5F3090343EA0803506823F0004303
:1030100001400B4353600023226884F8403013685A
:1030200043F0F2031360ADE7226B238D112A7FF486
:103030004BAFAA2E3FF448AFA6F52A47B7FA87F759
:103040007F09002F7FF440AFB94651E7202384F871
:1030500040A084F8413084F842A0636C43F0100330
:1030600063640120BDE8F0870022E26238E7202295
:1030700084F8403084F8412084F84230636C43F097
:1030800080036364EDE794F8283045EA034343EA9C
:1030900008035DE77D43000851450008F54400083A
:1030A000FF63FF03C53F0008009C00FC0020008078
:1030B000844690F8410020286ED19CF840000128F9
:1030C0006AD03C4830B4CCF824202222CCF834001A
:1030D00010208CF8412000228CF842000124CCF80A
:1030E0004420ACF82A30029B8CF84040CCF82C30BD
:1030F000BCF82A2092B2FF2A37D8BCF82A30DCF874
:103100002C50D8B29BB20004ACF82830DCF8303038
:10311000122B35D0DCF82C30AA2B47D0DCF82C3021
:10312000B3F52A4F3DD0BCF82A309BB2FF2B35D8DF
:10313000DCF82C50204C214AC1F309030021034341
:1031400008462B43DCF8005013436A6823F0004321
:10315000224013436B60DCF800208CF840101368A9
:1031600043F0F403136030BC7047FF234FF47F003B
:103170004FF08075ACF82830DCF83030122BC9D114
:10318000029BAA2BC6D0A3F52A42B2FA82F25209B8
:10319000002ABFD10A4CCFE702207047064C074AED
:1031A000CAE74FF00073CCF82C30BCE70023CCF812
:1031B0002C30B8E7C53F0008009800FC00240080D0
:1031C000009C00FC2DE9F0410D4690F841102029AB
:1031D00040F0828090F84010044601297CD0012103
:1031E000426280F84010222180F84110102180F8BE
:1031F0004210002141644385069B5449C362438DBC
:1032000041639BB2FF2B3ED8438DC76A216B9BB2B3
:10321000122923853ED0E16AAA2962D0E16AB1F57C
:103220002A4F02D14FF00071E162618D89B2FF290E
:1032300055D8E76A464E002B38D0E36B002B53D0AD
:1032400044494FF00008D9634349E36BD964E36B09
:10325000C3F84080E36BC3F850802168238D24318C
:10326000E06BFDF703FB00284AD0202384F8408060
:1032700084F8413084F84280636C43F01003636447
:103280000120BDE8F081216BFF234FF080771229E8
:103290002385C0D10699AA29BDD0A1F52A46B6FA40
:1032A00086F67609002EB6D1002BC6D12168C5F36B
:1032B00009052A4A2A4862634A6802401543294A96
:1032C0002A434A60226884F84030136843F0F403CC
:1032D00013600020BDE8F0810220BDE8F0811C4EA3
:1032E000A9E70021E162A0E7202284F8403084F8B9
:1032F000412084F84230636C43F080036364BFE78D
:1033000094F82820C5F30903174943EA02432568C6
:1033100041EA56513B436A68334322EA010223F0F3
:10332000004313436B60638D218D22685B1A84F820
:1033300040009BB26385136843F0900313602268DA
:10334000136843F400431360C3E700BF7D430008E4
:1033500000240080FD450008F5440008C53F000832
:10336000009800FC00240002FF63FF0330B5044610
:1033700090F8410085B000F02800282802D00120F4
:1033800005B030BD00293AD0002A38D0256894F81D
:103390004100286820F0FA00286094F840000128D5
:1033A00031D00120256884F8400094F841002A2893
:1033B0002BD0292084F84100202084F842000020EE
:1033C0006064686820F40040686062852748628D08
:1033D000E36223686063616222859A6999691007D4
:1033E00004D5CA0302D50822DA612368002084F8D4
:1033F00040001A6842F0FA021A6005B030BD4FF47E
:1034000000736364BBE70220BAE794F8410000F060
:1034100028002828286814BF6FF0F40C6FF0440CC3
:1034200000EA0C002860256828680004C1D52868D7
:1034300020F400402860E06BB0B10D4D01910565AE
:10344000E06BCDE90223FDF7A9FA039BDDE9011248
:1034500050B1E06B0191056DCDE90223A8472568C5
:103460000199DDE90223A4E72568A2E7614C000881
:10347000D13C000870B5044690F8410084B000F0DB
:103480002800282802D0012004B070BD002900F0D7
:103490008980002A00F0868094F84000012800F01E
:1034A000958094F841500120256884F840002868F0
:1034B00020F0FA00286094F841002A2894F841008E
:1034C00000F08880292826684CD02920002584F81F
:1034D0004100202084F842006564706820F40040B8
:1034E00070606285628DE362534B61626363A36BBC
:1034F0002285002B2AD0514ADA63514AA36BDA6441
:10350000A36B1D64A36B1D652268238D2832A06BFD
:10351000FDF7ACF9002849D1638D218D22685B1A33
:1035200020859BB26385936991691D0701D5CB0303
:1035300048D4002384F84030136843F48043136078
:103540002268136843F0B80313609DE7282284F8CB
:10355000403084F8412084F84230636C43F08003AB
:10356000636490E730684004AFD5306820F4804051
:103570003060A06B60B3334D01910565A06BCDE960
:103580000223FDF70BFA039BDDE9011200B3A06BE8
:103590000191056DCDE90223A84726680199DDE96F
:1035A000022392E74FF4007363646CE7282384F8E6
:1035B000405084F8413084F84250636C43F010036B
:1035C000636460E70823D3612268B2E702205BE707
:1035D00026687AE700F0280025682828286814BFA4
:1035E0006FF0F4066FF044063040286026683068BB
:1035F00005047FF56AAFE06B00283FF466AF3068E2
:10360000104D20F4004001913060E06B0565E06BE7
:10361000CDE90223FDF7C2F9039BDDE90112002881
:10362000D6D0E06B0191056DCDE90223A84726684D
:10363000039BDDE9011248E7314B0008993B000884
:10364000F5440008D13C000870B5044690F84100EC
:1036500084B000F02800282802D0012004B070BDFA
:1036600000293AD0002A38D0256894F8410028680B
:1036700020F0FC00286094F84000012831D094F834
:1036800041500120292D84F8400020682BD02A25A4
:1036900084F84150202584F842500025656445682F
:1036A00025F40045456062852748628DE362236802
:1036B0006063616222859A699969100704D5CA031B
:1036C00002D40822DA612368002084F840001A68D6
:1036D00042F0FC021A6004B070BD4FF400736364E2
:1036E000BBE70220BAE794F84150066805F02805C8
:1036F000282D14BF6FF0F2056FF0420535400560CC
:10370000206805686D04C2D5056825F4804505600C
:10371000A06BB0B10D4D01910565A06BCDE9022301
:10372000FDF73CF9039BDDE9011250B1A06B01915B
:10373000056DCDE90223A84720680199DDE9022340
:10374000A5E72068A3E700BF614C0008D13C000852
:1037500070B5044690F8410084B000F02800282895
:1037600002D0012004B070BD00295FD0002A5DD0D6
:10377000256894F84100286820F0FC00286094F83F
:103780004000012800F0BE800120266884F8400037
:1037900094F84100292894F841004BD02A2800F0E1
:1037A00090802A20002584F84100202084F84200DF
:1037B0006564706820F4004070606285628DE36229
:1037C000524B61626363E36B2285002B6DD05048DE
:1037D0000A465049D863E36BD964E36B1D64E36B1D
:1037E0001D652168238D2431E06BFDF73FF800282B
:1037F0004FD1638D218D22685B1A20859BB2638532
:10380000936991691D0704D5CB0302D40823D361C2
:103810002268002384F84030136843F400431360A7
:103820002268136843F0FC0313609BE74FF40073B6
:10383000636496E700F028003568282814BF6FF00D
:10384000F2006FF04200284030602668306845047E
:10385000A7D5A06B0028A4D030682F4D20F480405D
:1038600001913060A06B0565A06BCDE90223FDF7E7
:1038700095F8039BDDE90112002845D0A06B01916A
:10388000056DCDE90223A8472668039BDDE90112F7
:1038900087E7282384F8405084F8413084F8425068
:1038A000636C43F0100363645BE7282284F84030C4
:1038B00084F8412084F84230636C43F080036364F1
:1038C0004FE7306800047FF56CAF306820F40040AB
:1038D0003060E06BC0B1104D01910565E06BCDE942
:1038E0000223FDF75BF8039BDDE9011260B1E06B99
:1038F0000191056DCDE90223A84726680199DDE90C
:1039000002234EE702202DE726684AE7314B0008E4
:10391000B13B0008F5440008D13C000890F8412074
:103920000346202A01D00220704702684FF0280C7D
:103930000449002083F841C05963136843F0B80379
:1039400013607047614C000890F84130282B01D07B
:103950000220704710B490F84110002390F84220E4
:103960004FF0200C01F00301046843630A43026333
:1039700080F841C080F842301846226822F0B80230
:1039800022605DF8044B704790F84230102B04D051
:10399000DAB2402A01D00120704790F84030012B64
:1039A00041D0012210B490F8413080F84020212B02
:1039B00028D090F84130222B37D004686022234B66
:1039C000C1F3090180F8412062681A40204B11437D
:1039D00000220B431F49636080F84020436B1E4A5E
:1039E0008B4218BF934204D01C4A934201D020213D
:1039F00000E060210268002013680B4313605DF84B
:103A0000044B704790F84120046802F028022368B4
:103A1000282A14BF6FF0F2026FF042021340112205
:103A200023600263C9E70220704790F841300268C2
:103A300003F028031468282B14BF6FF0F4036FF011
:103A400044032340122413600463B6E7009800FC8B
:103A500000400102314B00087D4300084D41000841
:103A60000268436B9169126803B11847704700BF41
:103A7000704700BF704700BF002138B580F8421082
:103A8000202490F84120212A18D1112280F84140A9
:103A90000468026390F84120416302F02802282A5A
:103AA000226814BF6FF0F20C6FF0420C02EA0C02B5
:103AB000226080F84010FFF7DBFF38BD122280F84B
:103AC00041400468026390F84120416302F02802FB
:103AD0002568282A14BF6FF0F4026FF044022A40D0
:103AE000226080F84010FFF7C5FF38BD704700BF67
:103AF000704700BF0368002110B51A6880F84210B3
:103B000051040CD51A6822F480421A6090F84130B2
:103B1000292B0ED090F841302A2B23D010BD12044F
:103B2000F4D51A6822F400421A6090F84130292B2B
:103B3000F0D128212123026880F84110002103637D
:103B400090F84130146803F02803282B14BF6FF05D
:103B5000F2036FF042032340136080F84010FFF738
:103B6000C5FF10BD28212223026880F841100021E2
:103B7000036390F84130146803F02803282B14BF26
:103B80006FF0F4036FF044032340136080F840109B
:103B9000FFF7AEFF10BD00BF806BC36A33F08073C8
:103BA00000D070470268136823F480431360A1E7D4
:103BB000806BC36AC26B13F5803F1268526800D0F5
:103BC00002B170470268136823F40043136091E761
:103BD000704700BF90F8412002F02802282AF8B56B
:103BE0000346046805D008210022E16180F84020E6
:103BF000F8BDA169C768A269C1F30041022FA56899
:103C00004FEA1242E66802F0FE0216D182EAD51CA3
:103C1000C5F309021CF006070DD1856C01358564DA
:103C2000856C022DE4D108258764E56180F8407039
:103C3000FFF7CEFFF8BD06F0FE02256825F0B805B7
:103C40002560002483F84040FFF7C2FFF8BD00BFA5
:103C5000704700BF10B500222023184C4263C46295
:103C6000026380F8413080F842204A07036812D589
:103C70005A6A436A1A70436A028D01334362DAB1A9
:103C8000418D013A0368013902858AB24285426C4E
:103C900042F00402426490F84120102490F8412040
:103CA00000211A6822F0FE021A600368DC6180F8C5
:103CB0004010FFF7CDFF10BD0368ECE70000FFFFE9
:103CC000704700BF704700BF704700BF704700BF1C
:103CD00008B5806B836B0BB100221A65C36B0BB107
:103CE00000221A6590F84130602B4FF0000305D098
:103CF000036380F84030FFF7E7FF08BD202280F81B
:103D0000403080F841200363FFF7E0FF08BD00BFAB
:103D100070B55B4A002590F84130044680F8425067
:103D2000283BC2624585426C022B42EA01020168CF
:103D3000426471D890F8412090F84130282002F078
:103D4000280203F02803282A14BFF6224622282B33
:103D50000B680CBFD2436FF0F6021340494A0B6068
:103D600084F84100A06B236B626318B1112B1ED045
:103D7000212B1CD0E06B18B1122B30D0222B2ED06F
:103D800094F84130602B4FF0000306D020462363A7
:103D900084F84030FFF798FF70BD2022204684F859
:103DA000403084F841202363FFF790FF70BD236803
:103DB0001A6851045ED4FCF7E3FF0128E0D0A26B3F
:103DC00000233149116584F84030A06BFCF7E6FD13
:103DD0000028E1D0A06BBDE87040036D1847236850
:103DE0001A68120404D51A6822F400421A60E06BC3
:103DF000FCF7C6FF0128C3D0E26B002322491165FE
:103E000084F84030E06BFCF7C9FD0028C4D0E06BBB
:103E1000BDE87040036D184790F8413090F841308C
:103E20000B6823F0FE030B6003689A69920701D5C3
:103E30009D6203689A69D60703D49A6942F0010229
:103E40009A6194F84130602B12D02022236884F8C4
:103E500041209A6995060BD59A69D00606D510229D
:103E6000DA61626C236842F0040262642022DA6143
:103E7000002277E71A6822F480421A60A06B9AE762
:103E80000000FFFF614C0008D13C000803682022BD
:103E900030B583B0DA6190F84130212B48D090F8EA
:103EA0004130222B73D002680024444D53682B40CC
:103EB000CD065360424B4463C36206D503681022AB
:103EC000DA61436C43F00403436490F841200368D3
:103ED000602A26D09A69910702D500229A62036867
:103EE0009A69D20703D49A6942F001029A61426C3E
:103EF00090F84130DBB27AB9A3F16003B3FA83F3EF
:103F00005B094BB990F84120212A31D090F841202B
:103F1000222A1ED003B030BD416C03B0BDE8304052
:103F2000F6E64C07D6D55A6AD2B20192019AD1E789
:103F300090F84120046802F028022368282A14BF60
:103F40006FF0F2026FF0420213401122236002630D
:103F5000A9E7202280F8403080F84120036390F8E0
:103F6000422080F84230402A25D0FFF783FDD1E778
:103F7000202280F8403080F84120036390F84220EE
:103F800080F84230402A13D0FFF772FDC2E790F864
:103F90004130026803F028031468282B14BF6FF027
:103FA000F4036FF0440323401224136004637AE7A0
:103FB000FFF786FEAEE7FFF785FEABE700E800FE01
:103FC0000000FFFFF8B590F84030012B00F09C8016
:103FD00016460123CA0604460D4680F8403001D536
:103FE000F3066AD469071AD5720718D5226825F036
:103FF0000405636A526A1A70638D626A013B01327A
:104000009BB26262228D6385531E2385AA0601D569
:10401000B30674D40023184684F84030F8BD6B060C
:104020000CD4AF071FD5B0071DD5638D9BB2002BF5
:10403000ECD0626A236812789A62DDE7290614D40C
:104040007006E3D5638D9BB2002B53D123685A6869
:104050009101DBD4E26A12F5803F47D15A6842F4FD
:1040600080425A60D2E72A06D0D57306CED5638D3A
:1040700022689BB2002B36D0238D002B33D15168A0
:10408000638DC1F309019BB2FF2B3FD993692E4881
:10409000C3F30043002B0CBFFF2301232385536888
:1040A00003EA00030CBF4FF47F004FF4803003435A
:1040B0000B4343F080735360A8E703681022DA6172
:1040C000426C036842F0040242649A69970702D581
:1040D00000229A6203689A69D00797D49A6942F0DD
:1040E00001029A6192E753689F0103D42046FFF7CB
:1040F000C3FC8BE740212046FFF70AFE86E72946EE
:104100002046FFF7C3FE85E70220F8BD638DE06A15
:104110009BB210F5803F2385DBB20BD0E06A40EA0A
:10412000034309480B43516823F0004301400B430C
:1041300053606BE75068044F3840014341EA034342
:1041400043F00073536061E7009C00FC38B590F8C1
:104150004030012B00F0D7800123044680F8403026
:10416000CB0602D5D50600F1A6808B070CD59507A6
:104170000AD5216D4FF0FF33226891622365002339
:10418000184684F8403038BD0B0638D5550640F146
:10419000888094F84130226803F028031168282BA6
:1041A00014BF6FF0F2036FF042030B4013602268FC
:1041B000136843F090031360638D9BB2002B00F0F3
:1041C000B580638D22689BB2FF2B40F29E8093697D
:1041D000634DC3F30043E16C002BC1F309010BBF36
:1041E000FF2301234FF47F004FF480302385536871
:1041F0002B4003430B4343F0807353603CE04D0678
:104200004FD550064DD594F84130226803F028036D
:1042100054491568282B544814BF6FF0F2036FF00F
:1042200042032B4013602268136843F0900313602D
:1042300094F84120638D222A18BF014622689BB260
:10424000FF2B78D993694948C3F30043002B0BBF78
:10425000FF2301234FF47F054FF480352385E36C62
:10426000C3F309030B4351682B43014023F0004380
:104270000B4343F080735360638D218D22685B1A7A
:104280009BB2638594F84130222B13680CBF43F432
:10429000004343F4804313600023184684F8403001
:1042A00071E78B067FF56BAF93067FF568AF20460D
:1042B000FFF7ECFD63E7036810222D48DA612D4912
:1042C000636C626B43F00403824218BF8A426364EA
:1042D00004D0294B9A4201D0202100E060212268BD
:1042E00013680B43136023689A69910702D5002273
:1042F0009A6223689A69D2073FF541AF9A6942F002
:1043000001029A613BE7022038BD618DE36C89B2FE
:104310001348C3F309032185C9B243EA0143516835
:1043200001400B4343F000735360A5E74021204652
:10433000FFF7EEFC23E7608DE36C80B2C3F3090363
:104340002085C0B243EA004308480B43516823F07C
:10435000004301400B4343F0007353608CE700BF00
:10436000009C00FC0024008000200080009800FCDD
:10437000314B00087D4300084D41000838B590F8E6
:104380004030012B00F08A800123CD06044680F8DE
:10439000403001D5D0065AD408063BD553064ED539
:1043A0002268136823F040031360638D9BB2002BD7
:1043B00076D021684868638DC0F309009BB2FF2B5B
:1043C0007BD8628DE36A92B213F5803F2285D2B228
:1043D00000F08480E36A12041343424D4A680343A9
:1043E0002A4023F0004313434B60638D228D9B1AB8
:1043F00022689BB2638594F84130222B13680CBF6E
:1044000043F4004343F4804313600023184684F8C8
:10441000403038BD4D0612D5500610D5638D9BB285
:10442000002B45D123685A689201EED4E26A12F556
:10443000803F39D15A6842F480425A60E5E78B06E2
:10444000E3D59306E1D52046FFF720FDDDE723689D
:1044500010222548DA612549636C626B43F004033E
:10446000824218BF8A42636404D0214B9A4201D031
:10447000202100E06021226813680B431360236849
:104480009A69920702D500229A6223689A69D50731
:10449000BBD49A6942F001029A61B6E7022038BDA6
:1044A00023685B689A0103D42046FFF7E5FAACE77E
:1044B00040212046FFF72CFCA7E78B69DD0306D5DA
:1044C00001234FF4803223854FF0807384E7FF236C
:1044D0004FF47F0223854FF080737DE74FF0007328
:1044E000120479E7009C00FC314B00087D43000872
:1044F0004D41000838B5846B0346D4E90E12E9B18A
:1045000009684D6892B1126852687AB91846FCF78A
:104510003BFC022811D0226820461021536843F446
:1045200000435360BDE83840FFF7F2BB1846FCF784
:104530002BFC022801D0002DEDD038BD1AB1126835
:104540005268002AE2D0BDE83840FCF71DBC00BF2D
:1045500038B5846B2268136823F480431360638D3D
:104560009BB2002B31D0638D616A228D9BB21144C6
:10457000FF2B61620FD8608D80B2034622682085D0
:104580002832A06BFCF772F940B120461021BDE83B
:104590003840FFF7BDBBFF231846EFE7144B616BB4
:1045A000144A154D994218BF9142206814BF012347
:1045B00000230268A9420CBF002303F0010383F02B
:1045C000010342EA8313036038BD636B0949084A5B
:1045D0008B4218BF934204D0074A934201D0202156
:1045E00000E06021226813680B43136038BD00BFF0
:1045F0007D430008314B00084D41000838B5846BFD
:104600002268136823F400431360638D9BB2002B70
:1046100034D0638D626A208D9BB221680244FF2BE7
:1046200062620ED8608D80B2034620852431E06B33
:10463000FCF71CF958B120461021BDE83840FFF7BF
:1046400067BB8B69DB032BD501200346EDE7164BD7
:10465000616B164A164D994218BF9142206814BFEB
:10466000012300230268A9420CBF002303F00103C9
:1046700083F0010342EA8313036038BD636B0A4988
:104680000A4A8B4218BF934204D0094A934201D090
:10469000202100E06021226813680B43136038BDBD
:1046A000FF200346C1E700BF7D430008314B0008EF
:1046B0004D410008F8B590F84030012B00F0C4805F
:1046C000012304460D46164680F84030CB0602D53D
:1046D000D70600F198806B071BD5770719D522689C
:1046E00025F00405636A526A1A70638D626A013BA1
:1046F00001329BB26262228D6385531E2385AA0616
:1047000002D5B30600F19B800023184684F84030A0
:10471000F8BDA9072AD42B0634D57706EFD5638DCB
:104720009BB2002B00F08680238D002B40F082800E
:10473000638D22689BB2FF2B40F2A0809369584F93
:10474000C3F30043E16C002BC1F309010BBFFF234E
:1047500001234FF47F004FF48030238553683B40A2
:1047600003430B4343F080735360C8E7B207D2D5CD
:10477000236D2268013369D0236D93624FF0FF33BC
:104780002365BCE76806BAD57106B8D594F8413000
:10479000226803F028031168282B14BF6FF0F2037E
:1047A0006FF042030B403F4913602268136843F0E7
:1047B000F403136094F84100638D3B4A9BB22228B6
:1047C00018BF11462268FF2B44D993693748C3F3B9
:1047D0000043002BE36CC3F3090343EA01030CBF5E
:1047E0004FF47F014FF4803143EA01030CBFFF21F6
:1047F000012123F000432185516801400B4343F020
:10480000807353607BE703681022DA61426C0368AF
:1048100042F0040242649A69910702D500229A622A
:1048200003689A69D2073FF56AAF9A6942F00102BC
:104830009A6164E740212046FFF76AFA5FE729465C
:104840002046FFF723FB5FE70220F8BD636A1B7871
:1048500093624AE7638D9BB2D8B22385E36CC3F3BE
:10486000090343EA004311480B43516823F0004316
:1048700001400B4343F00073536040E7638D0848E9
:104880009BB2D9B22385E36CC3F3090343EA014326
:10489000516801400B4343F0007353602FE700BFA2
:1048A000009C00FC0024008000200080009800FC98
:1048B000036810B49A691968D4052BD5090606D483
:1048C000416C11F00B0F21D15DF8044B7047416C26
:1048D0004FF4807441F001014164DC61530507D558
:1048E0000468436C4FF4806143F008034364E16162
:1048F0009305E5D50368426C4FF4007142F0020263
:104900004264D961416C11F00B0FDDD05DF8044BAE
:10491000FFF7FEB9540503D509061C46E1D4CFE7DD
:104920009405CDD50A06E6D4CAE700BF70B50446A3
:104930000D46016820260A68C06A94F84130CE61AD
:10494000213B092B0FD8DFE803F07F050E0E0E0E7A
:104950000EA87F052168222694F841300B6823F0C9
:10496000FC030B60266321686F4E4B6843F40043E1
:104970004B6021684B6833404B60236899698E0710
:1049800002D50021996223689969C90703D49969FE
:1049900041F00101996153043DD521680B6823F46E
:1049A00080430B60A36B1BB11B685B689BB2638584
:1049B00069070BD5236825F00405596A636A1970E5
:1049C000636A01336362238D002B5FD1638D9BB2D9
:1049D0001BB1636C43F004036364EB0601D5D60698
:1049E0003CD4002384F84230666C6363002E60D1AF
:1049F000E36A4E4DAB4219D194F84130204684F819
:104A00004060222B4FF0200384F8413026636ED0A3
:104A1000FFF76CF870BD1604CAD521680B6823F443
:104A200000430B60E36B002BBED1C1E72046FFF7CC
:104A300061F82023E562204684F8413084F8406024
:104A40002663FFF705F970BD2168212694F84130EF
:104A50000B6823F0FA030B60266384E7638D9BB237
:104A6000002B34D194F84130B0F1007FDBB201D19A
:104A7000282B53D094F8413010F5803F2268DBB2E8
:104A800001D0292B36D01023D361AAE7013B23851F
:104A9000638D013B9BB2638598E72168002694F8FB
:104AA000413094F841300B6823F0FE030B6026631D
:104AB00059E7616C2046FFF72BF994F84130282B19
:104AC000A8D129462046BDE87040FFF7C3B8236847
:104AD0001022DA61636C43F00403636430F0807386
:104AE0007FF47FAF616C2046FFF712F979E7FEF79C
:104AF000FFFF70BD1023D36123689A69910702D527
:104B000000229A6223689A69D20703D49A6942F014
:104B100001029A612046FEF7EDFF62E72946204632
:104B2000FFF798F85DE700BF00E800FE0000FFFF18
:104B300038B590F840C0C56ABCF1010F75D04FF090
:104B4000010C11F0200F0B46044680F840C002D043
:104B500012F0200F2BD1D80620D5D1061ED5500437
:104B600030D5E16B09B112046CD4A26B7ABB236817
:104B70001022DA6135F08072636C43F004036364E1
:104B800094F84130DBB20DD1213B092B55D8DFE839
:104B900003F052635454545454545263190701D5CA
:104BA00013070BD40023184684F8403038BDFFF7B4
:104BB000BDFE0023184684F84030F7E72046FFF793
:104BC00009F8EFE7110432D5E26B002ACFD0126862
:104BD0005268002ACBD194F84120B5F1007FD2B2BF
:104BE00006D1282A04D119462046FFF733F8D9E721
:104BF00094F841302268292B4FF01003D361D1D1B2
:104C000015F5803FCED023689A69950702D500221A
:104C10009A6223689A69D00703D49A6942F0010224
:104C20009A612046FEF766FFBCE7022038BD236884
:104C30001022DA61B6E721232363616C2046FFF777
:104C400067F8AFE70A685268002A8ED1A26B002A83
:104C5000C1D012685268BEE722232363EDE700BF8C
:104C600038B590F840C0C56ABCF1010F00F08580EE
:104C70004FF0010C11F0200F04460B4680F840C0A5
:104C800002D012F0200F53D1D80616D5D10614D574
:104C9000628D92B2002A72D194F84120B5F1007F62
:104CA000D2B250D1282A4ED119462046FEF7D2FF63
:104CB0000023184684F8403038BD59071AD4190724
:104CC00001D510073BD49907F2D59307F0D5638D32
:104CD0009BB2002B62D0626A236812789A62638D5D
:104CE000616A228D013B0131013A9BB261622285EA
:104CF0006385DDE75007E2D5638D9BB26BB1226817
:104D0000636A526A1A70638D616A228D013B0131B8
:104D1000013A9BB2616222856385638D15F5803F00
:104D20009BB2C5D0002BC3D12046FEF7E3FEBFE700
:104D3000FFF7FCFD0023184684F84030BCE720460E
:104D4000FEF748FFB4E794F841302268292B4FF072
:104D50001003D361ACD115F5803FA9D023689A69BF
:104D6000950702D500229A6223689A69D007DBD49E
:104D70009A6942F001029A61D6E7022038BD2368A1
:104D80001022DA61636C43F00403636435F08073CE
:104D90008ED1616C2046FEF7BBFF89E735F080734A
:104DA00086D1C1E790F84100704700BF90F84200FB
:104DB000704700BF406C704738B50D4C636843F4D2
:104DC00000736360636843F480736360FBF7F4F916
:104DD000054605E0FBF7F0F9401BB0F57A7F04D8F3
:104DE00063681B07F6D5002038BD032038BD00BF1F
:104DF0000070004038B50D4C636823F400736360A5
:104E0000636843F480736360FBF7D6F9054605E0F9
:104E1000FBF7D2F9401BB0F57A7F05D8636813F031
:104E20000803F5D1184638BD032038BD0070004096
:104E3000024A136843F40073136070470070004027
:104E4000024A136823F40073136070470070004037
:104E5000024A136843F40063136070470070004017
:104E6000024A136823F40063136070470070004027
:104E7000024A136843F48063136070470070004077
:104E8000024A136823F48063136070470070004087
:104E90001A4B30B51A6C83B0194C42F080521A6428
:104EA0001B6C03F080530193019B236843F4803310
:104EB0002360FBF781F9054605E0FBF77DF9401B10
:104EC000B0F57A7F17D86368DA03F6D523680C4DFE
:104ED00043F400332360FBF76FF9044605E0FBF76A
:104EE0006BF9001BB0F57A7F05D86B689B03F6D58C
:104EF000002003B030BD032003B030BD00380240B5
:104F0000007000401B4B30B51A6C83B01A4C42F055
:104F100080521A641B6C03F080530193019B236839
:104F200023F400332360FBF747F9054605E0FBF760
:104F300043F9401BB0F57A7F18D863689B03F6D419
:104F400023680D4D23F480332360FBF735F90446C5
:104F500005E0FBF731F9001BB0F57A7F06D86B68E6
:104F600013F48033F5D1184603B030BD032003B0ED
:104F700030BD00BF0038024000700040214BF0B54A
:104F80001A6C83B0204C074642F080520E461A64D9
:104F90001B6C03F080530193019A1C4B626813430E
:104FA0006360236843F440232360FBF705F905465B
:104FB00005E0FBF701F9401BB0F57A7F1CD8636868
:104FC00003F44023B3F5402FF3D02268012E104B99
:104FD00003EA02030F4A43EA07032360136943F01D
:104FE000040313610BD020BF0A4A0020136923F089
:104FF0000403136103B0F0BD032003B0F0BD30BF64
:10500000F2E700BF003802400070004000010C00D1
:10501000FCF3FFFF00ED00E0024B186800F4404095
:10502000704700BF0070004070B5294C82B0236CFF
:1050300043F080532364236C03F080530093009B60
:10504000A36803F00C03082B3FD02368064623F027
:1050500080732360FBF7B0F8054604E0FBF7ACF87B
:10506000431B022B2ED823689901F7D4194A184DF7
:10507000136823F4404333431360136803F440433D
:105080000193019B236843F080732360FBF794F83E
:10509000044604E0FBF790F8001B022812D82B68A6
:1050A0009A01F7D5FBF788F80A4D044605E0FBF7AF
:1050B00083F8001BB0F57A7F04D86B685B04F6D5E3
:1050C000002000E0032002B070BD012002B070BDDE
:1050D0000038024000700040836B00211A68996319
:1050E000136843F400331360704700BF836B0021E3
:1050F0001A68D962136843F400331360704700BF25
:105100004B6A2DE9F04313B1B2F1406F43D18B6983
:105110000D6A3BB30468002D57D08B68E361CD69FD
:105120000468CB6A002D73D02B430D6B13432B43C4
:105130004D6B2B434D6A2B430D692B430D6A2B435B
:10514000CD682B438D692B430D682B434D69B2F11C
:10515000406F43EA854363616FD003684A689A6190
:10516000BDE8F083E5B103688C68DC61CD69046853
:10517000CB6A002D73D02B430D6B13432B434D6B28
:105180002B434D6A2B430D692B430D6A2B43CD688E
:105190002B438D69D9E78B6A0468013B2361B6E72D
:1051A000CC694B6A002C67D1002B46D0CD6A2B43CB
:1051B0004D6B13430A6B13434A692B4343EA824303
:1051C0000268536103689C6137E04D69D1F8009033
:1051D0004FEA854CCD69D1F824804E6BD1E90BE7BD
:1051E0006DB32B43CD68B2F1406F43EA020343EA4B
:1051F000090343EA080343EA0E0343EA070343EAC9
:10520000060343EA050343EA0C036361A5D114E0F6
:105210000E6B334313434A6B13434A6A13430A69C1
:1052200013430A6A13438A6913430A6813434A699A
:1052300043EA8243636103689D61BDE8F08343EA0A
:1052400009031A4342EA080343EA0E033B4333438C
:1052500043EA0C03636103689D61BDE8F0830E6B54
:10526000334313434A6B13434A6A13430A69134394
:105270000A6A13438A69D9E72343CC6AB2F1406FC3
:1052800043EA020343EA04030C6B43EA04034C6B56
:1052900043EA0403CC6843EA04034C6943EA8443C9
:1052A000046863617FF459AFC7E700BF704700BF70
:1052B00070B50446FAF780FF002C59D094F84130BD
:1052C000054603F0FF02002B49D02168A2680B6855
:1052D000013A23F4F85343EA02230B60A66C2268D8
:1052E00093689B0604D5701C2AD193689906FCD458
:1052F000D4E90751E36810682B430B43616843EA24
:1053000001631C4901400B4313602068D4E9053256
:1053100041681343226943EA0243174A0A400021C5
:105320001343436008462268136843F00103136087
:105330000123616484F84130002384F8403070BD5B
:10534000FAF73AFF401B864201D3002EC7D104234F
:10535000012084F84130636C03436364ECE720462A
:1053600084F84020FFF7A2FF41F28833A364ACE742
:10537000012070BD2FFFFF00FEF8E0FF704700BF67
:1053800080B110B502680446136823F0010313606E
:10539000FFF7F4FF00236364184684F8413084F873
:1053A000403010BD012070472DE9F04104460E4603
:1053B0001546FAF701FF94F84030012B39D001234C
:1053C00084F8403094F84130012BDFB206D0022738
:1053D0000023384684F84030BDE8F0810023804641
:1053E0006364022384F84130226893689B0604D5E5
:1053F000681C0ED193689906FCD4002231462046E1
:10540000FFF77EFE736A03B3012384F8413000275F
:10541000DEE7FAF7D1FEA0EB0800854201D3002DAC
:10542000E2D1042384F84130636C43F001036364E8
:10543000CEE702273846BDE8F081FAF7BDFEA0EBC3
:1054400008039D42EDD3002DEBD0226893689B07A3
:1054500004D4681CF1D193689907FCD5022101237B
:10546000D16084F84130D2E790F84030012B47D02A
:10547000012330B583B080F8403090F841300446C5
:10548000012B05D0002380F84030022003B030BD4E
:10549000204B0025204A1B68806CA2FB03230222BC
:1054A00065649B0A84F8412000FB03F3019303E049
:1054B00023689A68920610D5019B5A1E0192002B10
:1054C000F6D10422032084F84120626C42F00102EC
:1054D000626484F8403003B030BD4A6A0AB90322DE
:1054E000DA6000222046FFF70BFE4B6A53B92268B0
:1054F00084F84030136843F4403313600020C5E75C
:10550000022070470122002384F8412084F84030B3
:10551000F4E700BF00000020D34D621090F8402057
:10552000012A0CD00122034680F8402090F8412047
:10553000012AD0B24FF0000203D083F840200220AD
:1055400070475A64E1B130B412241868032583F817
:10555000414004690134DC620469596201349C628F
:10556000C5601868416921F04061416110461968C1
:1055700083F840200B6843F4E0230B6030BC704795
:105580005A6C42F008025A6483F84010704700BF1A
:1055900070B40468A66990F84020012A0BD001225B
:1055A000034680F8402090F84120012AD0B205D06F
:1055B000002283F84020022070BC704700255D6403
:1055C000F1B12222284683F84120226901329A63F0
:1055D0002269196301325A630322E26019684A6939
:1055E00022F0406242F080624A611A6896611A684D
:1055F00083F84050136843F4E023136070BC704795
:105600005A6C42F008025A6483F8401070BC70472C
:1056100038B504460368186994F84020012A09D077
:10562000012284F8402094F84120012A04D000236C
:1056300084F84030022038BD0022626400294AD03C
:10564000E26B01305269002A38D1E0621220032255
:10565000002584F84100DA60E36A2268A36261628F
:105660005369304823F040635361E36B2E4AD8639B
:105670002E48E36B1864E36BDA644022E36B1D652C
:10568000E36B9A60E36B1A689868136823F0C003B1
:10569000034313602268136843F480331360226865
:1056A000136843F0040313602268A36A2032E06B9E
:1056B000FBF7DCF8B8B984F8400038BDB2F5006FEC
:1056C00020D0B2F5805FC1D1850723D1A2689207AF
:1056D00020D18008B9E7636C43F00803636484F861
:1056E0004010012038BD22680121136823F0040313
:1056F0001360636C43F00403636484F8411084F81E
:105700004050EEE7C50705D4A268D20702D440088E
:10571000E0629BE7636C002243F00803636484F853
:105720004020DEE7ED5000088D5B0008E55B0008D7
:1057300070B5044603680A469D69186994F84010DC
:10574000012909D0012184F8401094F84110012961
:1057500004D0002384F84030022070BD0021616431
:10576000002A4DD0E16B0130496900293BD1A0638B
:105770002221002684F841100321D960A36B33490C
:105780006363E36B2263D9633149E36B1964314985
:10579000E36BD964E36B1E65E36B9E60E36B196892
:1057A00098680B6823F0C00303430B602168636BA8
:1057B0002031E06BFBF75AF8226848BB536923F0AD
:1057C000406343F08063536123689D6122681368DE
:1057D00043F4803313602268136843F004031360BA
:1057E00084F8400070BDB1F5006F1FD0B1F5805F47
:1057F000BED1860722D1A16889071FD18008B6E7EC
:10580000636C43F00803636484F84020012070BD9A
:105810001368012123F004031360636C43F0040355
:10582000636484F8411084F84060EFE7C60705D44C
:10583000A168C90702D44008A06399E7636C0022FD
:1058400043F00803636484F84020DFE7D950000880
:10585000D55B00088D5B00082DE9F04704461F4624
:1058600088461646FAF7A8FC94F84030012B53D02E
:10587000012384F8403094F84130012B5FFA83FA19
:1058800007D04FF0020A0023504684F84030BDE8AC
:10589000F087002381466364422384F84130236803
:1058A0009A68950604D5791C2DD19D68AA06FCD46A
:1058B00032689A62236872685A622368B268DA6250
:1058C0004FF0006220683169036823F440030B4302
:1058D000414643F4800303602046F368C8F828304B
:1058E000FFF70EFC226893681B0704D4781C18D1BC
:1058F00093681907FCD5082101234FF0000AD160F5
:1059000084F84130BFE7FAF757FCA0EB0900874263
:105910000FD3002FC3D10CE04FF0020A5046BDE870
:10592000F087FAF749FCA0EB0900874201D3002F6A
:10593000D8D1042384F84130636C43F001036364DD
:10594000A1E700BF90F84030012B5AD0012370B579
:1059500082B080F8403090F841300646012B05D0E7
:10596000002380F84030022002B070BD264B002496
:1059700026481B687464A0FB0303B06C9B0A00FB01
:1059800003F3422086F84100019304E03568AC68D7
:1059900014F0200410D0019B5C1E0194002BF5D163
:1059A0000422032086F84120726C42F001027264E6
:1059B00086F8403002B070BD1368AB62336850683F
:1059C000586233689068D8623568D2E9043003437E
:1059D000286820F44000034309202B603368D86016
:1059E0003046D3684FF000628B62FFF789FB326864
:1059F00086F840402046136843F41023136002B039
:105A000070BD0220704700BF00000020D34D62101F
:105A10002DE9F04704460F461646FAF7CDFB94F8F9
:105A20004030012B45D0012384F8403094F84130B8
:105A3000012B5FFA83F807D04FF00208002340469D
:105A400084F84030BDE8F08700238146D4F848A0B0
:105A50006364822384F841302568AB689B0605D5D2
:105A6000BAF1FF3F14D1AB689A06FCD42B68726878
:105A700023F0080313432B607368082B1ED04FF0EC
:105A80004062394620464FF00008FFF739FBD5E762
:105A9000FAF792FBA0EB0900824502D3BAF1000F9E
:105AA000DAD1042384F84130636C43F0010363646A
:105AB000C4E74FF002084046BDE8F0872368102293
:105AC000316819632368DA602268136843F480132D
:105AD0001360D4E7704700BF08B50023806B836371
